{
  "contractName": "ADOToken",
  "abi": [
    {
      "constant": true,
      "inputs": [],
      "name": "name",
      "outputs": [
        {
          "name": "",
          "type": "string"
        }
      ],
      "payable": false,
      "stateMutability": "view",
      "type": "function"
    },
    {
      "constant": false,
      "inputs": [
        {
          "name": "_spender",
          "type": "address"
        },
        {
          "name": "_value",
          "type": "uint256"
        }
      ],
      "name": "approve",
      "outputs": [
        {
          "name": "",
          "type": "bool"
        }
      ],
      "payable": false,
      "stateMutability": "nonpayable",
      "type": "function"
    },
    {
      "constant": true,
      "inputs": [],
      "name": "publicCapStage4",
      "outputs": [
        {
          "name": "",
          "type": "uint256"
        }
      ],
      "payable": false,
      "stateMutability": "view",
      "type": "function"
    },
    {
      "constant": true,
      "inputs": [],
      "name": "totalSupply",
      "outputs": [
        {
          "name": "",
          "type": "uint256"
        }
      ],
      "payable": false,
      "stateMutability": "view",
      "type": "function"
    },
    {
      "constant": true,
      "inputs": [],
      "name": "publicSoldStage3",
      "outputs": [
        {
          "name": "",
          "type": "uint256"
        }
      ],
      "payable": false,
      "stateMutability": "view",
      "type": "function"
    },
    {
      "constant": true,
      "inputs": [],
      "name": "privateRSVP",
      "outputs": [
        {
          "name": "",
          "type": "uint256"
        }
      ],
      "payable": false,
      "stateMutability": "view",
      "type": "function"
    },
    {
      "constant": true,
      "inputs": [],
      "name": "publicCapStage1",
      "outputs": [
        {
          "name": "",
          "type": "uint256"
        }
      ],
      "payable": false,
      "stateMutability": "view",
      "type": "function"
    },
    {
      "constant": true,
      "inputs": [],
      "name": "decimals",
      "outputs": [
        {
          "name": "",
          "type": "uint8"
        }
      ],
      "payable": false,
      "stateMutability": "view",
      "type": "function"
    },
    {
      "constant": true,
      "inputs": [],
      "name": "publicSoldStage4",
      "outputs": [
        {
          "name": "",
          "type": "uint256"
        }
      ],
      "payable": false,
      "stateMutability": "view",
      "type": "function"
    },
    {
      "constant": true,
      "inputs": [],
      "name": "publicSoldPresale",
      "outputs": [
        {
          "name": "",
          "type": "uint256"
        }
      ],
      "payable": false,
      "stateMutability": "view",
      "type": "function"
    },
    {
      "constant": true,
      "inputs": [],
      "name": "publicCapStage3",
      "outputs": [
        {
          "name": "",
          "type": "uint256"
        }
      ],
      "payable": false,
      "stateMutability": "view",
      "type": "function"
    },
    {
      "constant": false,
      "inputs": [],
      "name": "unpause",
      "outputs": [],
      "payable": false,
      "stateMutability": "nonpayable",
      "type": "function"
    },
    {
      "constant": true,
      "inputs": [],
      "name": "publicSoldStage2",
      "outputs": [
        {
          "name": "",
          "type": "uint256"
        }
      ],
      "payable": false,
      "stateMutability": "view",
      "type": "function"
    },
    {
      "constant": true,
      "inputs": [],
      "name": "paused",
      "outputs": [
        {
          "name": "",
          "type": "bool"
        }
      ],
      "payable": false,
      "stateMutability": "view",
      "type": "function"
    },
    {
      "constant": true,
      "inputs": [],
      "name": "publicSupply",
      "outputs": [
        {
          "name": "",
          "type": "uint256"
        }
      ],
      "payable": false,
      "stateMutability": "view",
      "type": "function"
    },
    {
      "constant": true,
      "inputs": [],
      "name": "oppWallet",
      "outputs": [
        {
          "name": "",
          "type": "address"
        }
      ],
      "payable": false,
      "stateMutability": "view",
      "type": "function"
    },
    {
      "constant": true,
      "inputs": [],
      "name": "vaultWallet",
      "outputs": [
        {
          "name": "",
          "type": "address"
        }
      ],
      "payable": false,
      "stateMutability": "view",
      "type": "function"
    },
    {
      "constant": false,
      "inputs": [
        {
          "name": "_spender",
          "type": "address"
        },
        {
          "name": "_subtractedValue",
          "type": "uint256"
        }
      ],
      "name": "decreaseApproval",
      "outputs": [
        {
          "name": "",
          "type": "bool"
        }
      ],
      "payable": false,
      "stateMutability": "nonpayable",
      "type": "function"
    },
    {
      "constant": true,
      "inputs": [],
      "name": "privateBuyLockPeriod",
      "outputs": [
        {
          "name": "",
          "type": "uint256"
        }
      ],
      "payable": false,
      "stateMutability": "view",
      "type": "function"
    },
    {
      "constant": true,
      "inputs": [
        {
          "name": "",
          "type": "address"
        }
      ],
      "name": "purchaseAmount",
      "outputs": [
        {
          "name": "",
          "type": "uint256"
        }
      ],
      "payable": false,
      "stateMutability": "view",
      "type": "function"
    },
    {
      "constant": true,
      "inputs": [
        {
          "name": "_owner",
          "type": "address"
        }
      ],
      "name": "balanceOf",
      "outputs": [
        {
          "name": "balance",
          "type": "uint256"
        }
      ],
      "payable": false,
      "stateMutability": "view",
      "type": "function"
    },
    {
      "constant": true,
      "inputs": [],
      "name": "conversionRate",
      "outputs": [
        {
          "name": "",
          "type": "uint256"
        }
      ],
      "payable": false,
      "stateMutability": "view",
      "type": "function"
    },
    {
      "constant": false,
      "inputs": [],
      "name": "pause",
      "outputs": [],
      "payable": false,
      "stateMutability": "nonpayable",
      "type": "function"
    },
    {
      "constant": true,
      "inputs": [],
      "name": "poolWallet",
      "outputs": [
        {
          "name": "",
          "type": "address"
        }
      ],
      "payable": false,
      "stateMutability": "view",
      "type": "function"
    },
    {
      "constant": true,
      "inputs": [],
      "name": "owner",
      "outputs": [
        {
          "name": "",
          "type": "address"
        }
      ],
      "payable": false,
      "stateMutability": "view",
      "type": "function"
    },
    {
      "constant": true,
      "inputs": [],
      "name": "publicSoldStage1",
      "outputs": [
        {
          "name": "",
          "type": "uint256"
        }
      ],
      "payable": false,
      "stateMutability": "view",
      "type": "function"
    },
    {
      "constant": true,
      "inputs": [],
      "name": "symbol",
      "outputs": [
        {
          "name": "",
          "type": "string"
        }
      ],
      "payable": false,
      "stateMutability": "view",
      "type": "function"
    },
    {
      "constant": true,
      "inputs": [],
      "name": "durationSeconds",
      "outputs": [
        {
          "name": "",
          "type": "uint256"
        }
      ],
      "payable": false,
      "stateMutability": "view",
      "type": "function"
    },
    {
      "constant": true,
      "inputs": [],
      "name": "prvWallet",
      "outputs": [
        {
          "name": "",
          "type": "address"
        }
      ],
      "payable": false,
      "stateMutability": "view",
      "type": "function"
    },
    {
      "constant": true,
      "inputs": [
        {
          "name": "",
          "type": "address"
        }
      ],
      "name": "earlyLocklist",
      "outputs": [
        {
          "name": "",
          "type": "bool"
        }
      ],
      "payable": false,
      "stateMutability": "view",
      "type": "function"
    },
    {
      "constant": true,
      "inputs": [],
      "name": "oppSupply",
      "outputs": [
        {
          "name": "",
          "type": "uint256"
        }
      ],
      "payable": false,
      "stateMutability": "view",
      "type": "function"
    },
    {
      "constant": false,
      "inputs": [
        {
          "name": "_spender",
          "type": "address"
        },
        {
          "name": "_addedValue",
          "type": "uint256"
        }
      ],
      "name": "increaseApproval",
      "outputs": [
        {
          "name": "",
          "type": "bool"
        }
      ],
      "payable": false,
      "stateMutability": "nonpayable",
      "type": "function"
    },
    {
      "constant": true,
      "inputs": [],
      "name": "vaultSupply",
      "outputs": [
        {
          "name": "",
          "type": "uint256"
        }
      ],
      "payable": false,
      "stateMutability": "view",
      "type": "function"
    },
    {
      "constant": true,
      "inputs": [
        {
          "name": "_owner",
          "type": "address"
        },
        {
          "name": "_spender",
          "type": "address"
        }
      ],
      "name": "allowance",
      "outputs": [
        {
          "name": "",
          "type": "uint256"
        }
      ],
      "payable": false,
      "stateMutability": "view",
      "type": "function"
    },
    {
      "constant": true,
      "inputs": [],
      "name": "startTimestamp",
      "outputs": [
        {
          "name": "",
          "type": "uint256"
        }
      ],
      "payable": false,
      "stateMutability": "view",
      "type": "function"
    },
    {
      "constant": false,
      "inputs": [
        {
          "name": "newOwner",
          "type": "address"
        }
      ],
      "name": "transferOwnership",
      "outputs": [],
      "payable": false,
      "stateMutability": "nonpayable",
      "type": "function"
    },
    {
      "constant": true,
      "inputs": [],
      "name": "scale",
      "outputs": [
        {
          "name": "",
          "type": "uint256"
        }
      ],
      "payable": false,
      "stateMutability": "view",
      "type": "function"
    },
    {
      "constant": true,
      "inputs": [],
      "name": "publicCapPresale",
      "outputs": [
        {
          "name": "",
          "type": "uint256"
        }
      ],
      "payable": false,
      "stateMutability": "view",
      "type": "function"
    },
    {
      "constant": true,
      "inputs": [],
      "name": "publicCapStage2",
      "outputs": [
        {
          "name": "",
          "type": "uint256"
        }
      ],
      "payable": false,
      "stateMutability": "view",
      "type": "function"
    },
    {
      "inputs": [
        {
          "name": "_poolWallet",
          "type": "address"
        },
        {
          "name": "_vaultWallet",
          "type": "address"
        },
        {
          "name": "_oppWallet",
          "type": "address"
        },
        {
          "name": "_prvWallet",
          "type": "address"
        },
        {
          "name": "_startTimestamp",
          "type": "uint256"
        }
      ],
      "payable": false,
      "stateMutability": "nonpayable",
      "type": "constructor"
    },
    {
      "payable": true,
      "stateMutability": "payable",
      "type": "fallback"
    },
    {
      "anonymous": false,
      "inputs": [],
      "name": "Pause",
      "type": "event"
    },
    {
      "anonymous": false,
      "inputs": [],
      "name": "Unpause",
      "type": "event"
    },
    {
      "anonymous": false,
      "inputs": [
        {
          "indexed": true,
          "name": "previousOwner",
          "type": "address"
        },
        {
          "indexed": true,
          "name": "newOwner",
          "type": "address"
        }
      ],
      "name": "OwnershipTransferred",
      "type": "event"
    },
    {
      "anonymous": false,
      "inputs": [
        {
          "indexed": true,
          "name": "owner",
          "type": "address"
        },
        {
          "indexed": true,
          "name": "spender",
          "type": "address"
        },
        {
          "indexed": false,
          "name": "value",
          "type": "uint256"
        }
      ],
      "name": "Approval",
      "type": "event"
    },
    {
      "anonymous": false,
      "inputs": [
        {
          "indexed": true,
          "name": "from",
          "type": "address"
        },
        {
          "indexed": true,
          "name": "to",
          "type": "address"
        },
        {
          "indexed": false,
          "name": "value",
          "type": "uint256"
        }
      ],
      "name": "Transfer",
      "type": "event"
    },
    {
      "constant": false,
      "inputs": [
        {
          "name": "buyer",
          "type": "address"
        }
      ],
      "name": "buyADO",
      "outputs": [],
      "payable": true,
      "stateMutability": "payable",
      "type": "function"
    },
    {
      "constant": true,
      "inputs": [
        {
          "name": "weiAmount",
          "type": "uint256"
        },
        {
          "name": "mult",
          "type": "uint256"
        }
      ],
      "name": "calculateTokensBought",
      "outputs": [
        {
          "name": "",
          "type": "uint256"
        }
      ],
      "payable": false,
      "stateMutability": "view",
      "type": "function"
    },
    {
      "constant": false,
      "inputs": [
        {
          "name": "_to",
          "type": "address"
        },
        {
          "name": "_value",
          "type": "uint256"
        }
      ],
      "name": "transfer",
      "outputs": [
        {
          "name": "",
          "type": "bool"
        }
      ],
      "payable": false,
      "stateMutability": "nonpayable",
      "type": "function"
    },
    {
      "constant": false,
      "inputs": [
        {
          "name": "_from",
          "type": "address"
        },
        {
          "name": "_to",
          "type": "address"
        },
        {
          "name": "_value",
          "type": "uint256"
        }
      ],
      "name": "transferFrom",
      "outputs": [
        {
          "name": "",
          "type": "bool"
        }
      ],
      "payable": false,
      "stateMutability": "nonpayable",
      "type": "function"
    },
    {
      "constant": false,
      "inputs": [
        {
          "name": "_rate",
          "type": "uint256"
        }
      ],
      "name": "updateADOTokenPrice",
      "outputs": [
        {
          "name": "",
          "type": "bool"
        }
      ],
      "payable": false,
      "stateMutability": "nonpayable",
      "type": "function"
    },
    {
      "constant": false,
      "inputs": [
        {
          "name": "_address",
          "type": "address"
        },
        {
          "name": "isLocked",
          "type": "bool"
        }
      ],
      "name": "editWhitelist",
      "outputs": [
        {
          "name": "",
          "type": "bool"
        }
      ],
      "payable": false,
      "stateMutability": "nonpayable",
      "type": "function"
    }
  ],
  "bytecode": "0x60606040526000600360146101000a81548160ff021916908315150217905550601260ff16600a0a6401dcd6500002600455620000c2601260ff16600a0a630989680002620000a5601260ff16600a0a6401636487a00262000088601260ff16600a0a631a13b860026004546200069f640100000000026200266f179091906401000000009004565b6200069f640100000000026200266f179091906401000000009004565b6200069f640100000000026200266f179091906401000000009004565b6005556130d460065560006009556000600a556000600b556000600c556000600d55603c600e55610d20600f5568015af1d78b58c4000060105568015af1d78b58c4000060115568015af1d78b58c4000060125568015af1d78b58c4000060135568015af1d78b58c4000060145534156200013c57600080fd5b60405160a080620033718339810160405280805190602001909190805190602001909190805190602001909190805190602001909190805190602001909190505033600360006101000a81548173ffffffffffffffffffffffffffffffffffffffff021916908373ffffffffffffffffffffffffffffffffffffffff16021790555084601660006101000a81548173ffffffffffffffffffffffffffffffffffffffff021916908373ffffffffffffffffffffffffffffffffffffffff16021790555083601760006101000a81548173ffffffffffffffffffffffffffffffffffffffff021916908373ffffffffffffffffffffffffffffffffffffffff16021790555082601860006101000a81548173ffffffffffffffffffffffffffffffffffffffff021916908373ffffffffffffffffffffffffffffffffffffffff16021790555081601960006101000a81548173ffffffffffffffffffffffffffffffffffffffff021916908373ffffffffffffffffffffffffffffffffffffffff1602179055506000811115620002d95780601581905550620002e4565b600542016015819055505b601260ff16600a0a6401636487a002600080601660009054906101000a900473ffffffffffffffffffffffffffffffffffffffff1673ffffffffffffffffffffffffffffffffffffffff1673ffffffffffffffffffffffffffffffffffffffff16815260200190815260200160002081905550601660009054906101000a900473ffffffffffffffffffffffffffffffffffffffff1673ffffffffffffffffffffffffffffffffffffffff1660007fddf252ad1be2c89b69c2b068fc378daa952ba7f163c4a11628f55a4df523b3ef601260ff16600a0a6401636487a0026040518082815260200191505060405180910390a3600554600080601760009054906101000a900473ffffffffffffffffffffffffffffffffffffffff1673ffffffffffffffffffffffffffffffffffffffff1673ffffffffffffffffffffffffffffffffffffffff16815260200190815260200160002081905550601760009054906101000a900473ffffffffffffffffffffffffffffffffffffffff1673ffffffffffffffffffffffffffffffffffffffff1660007fddf252ad1be2c89b69c2b068fc378daa952ba7f163c4a11628f55a4df523b3ef6005546040518082815260200191505060405180910390a3601260ff16600a0a630989680002600080601860009054906101000a900473ffffffffffffffffffffffffffffffffffffffff1673ffffffffffffffffffffffffffffffffffffffff1673ffffffffffffffffffffffffffffffffffffffff16815260200190815260200160002081905550601860009054906101000a900473ffffffffffffffffffffffffffffffffffffffff1673ffffffffffffffffffffffffffffffffffffffff1660007fddf252ad1be2c89b69c2b068fc378daa952ba7f163c4a11628f55a4df523b3ef601260ff16600a0a6309896800026040518082815260200191505060405180910390a3601260ff16600a0a631a13b86002600080601960009054906101000a900473ffffffffffffffffffffffffffffffffffffffff1673ffffffffffffffffffffffffffffffffffffffff1673ffffffffffffffffffffffffffffffffffffffff16815260200190815260200160002081905550601960009054906101000a900473ffffffffffffffffffffffffffffffffffffffff1673ffffffffffffffffffffffffffffffffffffffff1660007fddf252ad1be2c89b69c2b068fc378daa952ba7f163c4a11628f55a4df523b3ef601260ff16600a0a631a13b860026040518082815260200191505060405180910390a35050505050620006b9565b6000828211151515620006ae57fe5b818303905092915050565b612ca880620006c96000396000f300606060405260043610610225576000357c0100000000000000000000000000000000000000000000000000000000900463ffffffff16806306fdde0314610230578063095ea7b3146102be57806311c01c731461031857806318160ddd146103415780631a6d84021461036a5780631e527be51461039357806323032c3d146103bc57806323b872dd146103f757806329d242f114610470578063313ce567146104995780633332f0cf146104c85780633b8db8cf146104f15780633e09a9ad1461051a5780633f4ba83a146105435780635a6d021b146105585780635c975abb146105815780635e84d723146105ae5780635f813244146105d757806361f1c5ba1461062c5780636618846314610681578063687fd755146106db5780636c5cde681461070457806370a08231146107515780637ffdf53e1461079e5780638456cb59146107c757806388cb214e146107dc5780638d93ec88146108385780638da5cb5b1461088d578063953c0e75146108e257806395d89b411461090b5780639acba2af14610999578063a9059cbb146109c2578063ae72444614610a1c578063bf2da6e514610a5c578063d01ffe4214610ab1578063d28c07cb14610b02578063d73dd62314610b2b578063d9b4b3b714610b85578063dd62ed3e14610bae578063e40b7b2214610c1a578063e6fd48bc14610c48578063f2fde38b14610c71578063f51e181a14610caa578063f66a76de14610cd3578063f938a01a14610cfc575b61022e33610d25565b005b341561023b57600080fd5b6102436114fd565b6040518080602001828103825283818151815260200191508051906020019080838360005b83811015610283578082015181840152602081019050610268565b50505050905090810190601f1680156102b05780820380516001836020036101000a031916815260200191505b509250505060405180910390f35b34156102c957600080fd5b6102fe600480803573ffffffffffffffffffffffffffffffffffffffff16906020019091908035906020019091905050611536565b604051808215151515815260200191505060405180910390f35b341561032357600080fd5b61032b611628565b6040518082815260200191505060405180910390f35b341561034c57600080fd5b61035461162e565b6040518082815260200191505060405180910390f35b341561037557600080fd5b61037d611634565b6040518082815260200191505060405180910390f35b341561039e57600080fd5b6103a661163a565b6040518082815260200191505060405180910390f35b34156103c757600080fd5b6103dd600480803590602001909190505061164b565b604051808215151515815260200191505060405180910390f35b341561040257600080fd5b610456600480803573ffffffffffffffffffffffffffffffffffffffff1690602001909190803573ffffffffffffffffffffffffffffffffffffffff169060200190919080359060200190919050506116d1565b604051808215151515815260200191505060405180910390f35b341561047b57600080fd5b6104836118e4565b6040518082815260200191505060405180910390f35b34156104a457600080fd5b6104ac6118ea565b604051808260ff1660ff16815260200191505060405180910390f35b34156104d357600080fd5b6104db6118ef565b6040518082815260200191505060405180910390f35b34156104fc57600080fd5b6105046118f5565b6040518082815260200191505060405180910390f35b341561052557600080fd5b61052d6118fb565b6040518082815260200191505060405180910390f35b341561054e57600080fd5b610556611901565b005b341561056357600080fd5b61056b6119c1565b6040518082815260200191505060405180910390f35b341561058c57600080fd5b6105946119c7565b604051808215151515815260200191505060405180910390f35b34156105b957600080fd5b6105c16119da565b6040518082815260200191505060405180910390f35b34156105e257600080fd5b6105ea6119ec565b604051808273ffffffffffffffffffffffffffffffffffffffff1673ffffffffffffffffffffffffffffffffffffffff16815260200191505060405180910390f35b341561063757600080fd5b61063f611a12565b604051808273ffffffffffffffffffffffffffffffffffffffff1673ffffffffffffffffffffffffffffffffffffffff16815260200191505060405180910390f35b341561068c57600080fd5b6106c1600480803573ffffffffffffffffffffffffffffffffffffffff16906020019091908035906020019091905050611a38565b604051808215151515815260200191505060405180910390f35b34156106e657600080fd5b6106ee611cc9565b6040518082815260200191505060405180910390f35b341561070f57600080fd5b61073b600480803573ffffffffffffffffffffffffffffffffffffffff16906020019091905050611ccf565b6040518082815260200191505060405180910390f35b341561075c57600080fd5b610788600480803573ffffffffffffffffffffffffffffffffffffffff16906020019091905050611ce7565b6040518082815260200191505060405180910390f35b34156107a957600080fd5b6107b1611d2f565b6040518082815260200191505060405180910390f35b34156107d257600080fd5b6107da611d35565b005b34156107e757600080fd5b61081e600480803573ffffffffffffffffffffffffffffffffffffffff169060200190919080351515906020019091905050611df6565b604051808215151515815260200191505060405180910390f35b341561084357600080fd5b61084b611eb5565b604051808273ffffffffffffffffffffffffffffffffffffffff1673ffffffffffffffffffffffffffffffffffffffff16815260200191505060405180910390f35b341561089857600080fd5b6108a0611edb565b604051808273ffffffffffffffffffffffffffffffffffffffff1673ffffffffffffffffffffffffffffffffffffffff16815260200191505060405180910390f35b34156108ed57600080fd5b6108f5611f01565b6040518082815260200191505060405180910390f35b341561091657600080fd5b61091e611f07565b6040518080602001828103825283818151815260200191508051906020019080838360005b8381101561095e578082015181840152602081019050610943565b50505050905090810190601f16801561098b5780820380516001836020036101000a031916815260200191505b509250505060405180910390f35b34156109a457600080fd5b6109ac611f40565b6040518082815260200191505060405180910390f35b34156109cd57600080fd5b610a02600480803573ffffffffffffffffffffffffffffffffffffffff16906020019091908035906020019091905050611f46565b604051808215151515815260200191505060405180910390f35b3415610a2757600080fd5b610a46600480803590602001909190803590602001909190505061217d565b6040518082815260200191505060405180910390f35b3415610a6757600080fd5b610a6f6121c6565b604051808273ffffffffffffffffffffffffffffffffffffffff1673ffffffffffffffffffffffffffffffffffffffff16815260200191505060405180910390f35b3415610abc57600080fd5b610ae8600480803573ffffffffffffffffffffffffffffffffffffffff169060200190919050506121ec565b604051808215151515815260200191505060405180910390f35b3415610b0d57600080fd5b610b1561220c565b6040518082815260200191505060405180910390f35b3415610b3657600080fd5b610b6b600480803573ffffffffffffffffffffffffffffffffffffffff1690602001909190803590602001909190505061221d565b604051808215151515815260200191505060405180910390f35b3415610b9057600080fd5b610b98612419565b6040518082815260200191505060405180910390f35b3415610bb957600080fd5b610c04600480803573ffffffffffffffffffffffffffffffffffffffff1690602001909190803573ffffffffffffffffffffffffffffffffffffffff1690602001909190505061241f565b6040518082815260200191505060405180910390f35b610c46600480803573ffffffffffffffffffffffffffffffffffffffff16906020019091905050610d25565b005b3415610c5357600080fd5b610c5b6124a6565b6040518082815260200191505060405180910390f35b3415610c7c57600080fd5b610ca8600480803573ffffffffffffffffffffffffffffffffffffffff169060200190919050506124ac565b005b3415610cb557600080fd5b610cbd612604565b6040518082815260200191505060405180910390f35b3415610cde57600080fd5b610ce661260a565b6040518082815260200191505060405180910390f35b3415610d0757600080fd5b610d0f612610565b6040518082815260200191505060405180910390f35b6000806015544210151515610d3957600080fd5b600f546015540142111515610f2657610d5e6007600e5461261690919063ffffffff16565b601554014211158015610d875750610d813460095461265190919063ffffffff16565b60105410155b80610df05750610da36007600e5461261690919063ffffffff16565b6015540142118015610dcd5750610dc5600e805461261690919063ffffffff16565b601554014211155b8015610def5750610de934600a5461265190919063ffffffff16565b60115410155b5b80610e595750610e0b600e805461261690919063ffffffff16565b6015540142118015610e365750610e2e6015600e5461261690919063ffffffff16565b601554014211155b8015610e585750610e5234600b5461265190919063ffffffff16565b60125410155b5b80610ec35750610e756015600e5461261690919063ffffffff16565b6015540142118015610ea05750610e98601c600e5461261690919063ffffffff16565b601554014211155b8015610ec25750610ebc34600c5461265190919063ffffffff16565b60135410155b5b80610f1a5750610edf601c600e5461261690919063ffffffff16565b6015540142118015610ef75750600f54601554014211155b8015610f195750610f1334600d5461265190919063ffffffff16565b60145410155b5b1515610f2557600080fd5b5b600360149054906101000a900460ff16151515610f4257600080fd5b600f546015540142111515610fbb576801158e460913d00000610fad34600860003373ffffffffffffffffffffffffffffffffffffffff1673ffffffffffffffffffffffffffffffffffffffff1681526020019081526020016000205461265190919063ffffffff16565b11151515610fba57600080fd5b5b60649150610fd56007600e5461261690919063ffffffff16565b601554014211151561100657610ff63460095461265190919063ffffffff16565b6009819055506101f49150611195565b61101c6007600e5461261690919063ffffffff16565b6015540142118015611046575061103e600e805461261690919063ffffffff16565b601554014211155b1561106f5761106034600a5461265190919063ffffffff16565b600a8190555060e19150611194565b611084600e805461261690919063ffffffff16565b60155401421180156110af57506110a76015600e5461261690919063ffffffff16565b601554014211155b156110d8576110c934600b5461265190919063ffffffff16565b600b8190555060c89150611193565b6110ee6015600e5461261690919063ffffffff16565b60155401421180156111195750611111601c600e5461261690919063ffffffff16565b601554014211155b156111425761113334600c5461265190919063ffffffff16565b600c8190555060969150611192565b611158601c600e5461261690919063ffffffff16565b60155401421180156111705750600f54601554014211155b156111915761118a34600d5461265190919063ffffffff16565b600d819055505b5b5b5b5b61119f348361217d565b905080600080601660009054906101000a900473ffffffffffffffffffffffffffffffffffffffff1673ffffffffffffffffffffffffffffffffffffffff1673ffffffffffffffffffffffffffffffffffffffff168152602001908152602001600020541015151561121057600080fd5b61128381600080601660009054906101000a900473ffffffffffffffffffffffffffffffffffffffff1673ffffffffffffffffffffffffffffffffffffffff1673ffffffffffffffffffffffffffffffffffffffff1681526020019081526020016000205461266f90919063ffffffff16565b600080601660009054906101000a900473ffffffffffffffffffffffffffffffffffffffff1673ffffffffffffffffffffffffffffffffffffffff1673ffffffffffffffffffffffffffffffffffffffff16815260200190815260200160002081905550611338816000808673ffffffffffffffffffffffffffffffffffffffff1673ffffffffffffffffffffffffffffffffffffffff1681526020019081526020016000205461265190919063ffffffff16565b6000808573ffffffffffffffffffffffffffffffffffffffff1673ffffffffffffffffffffffffffffffffffffffff16815260200190815260200160002081905550601660009054906101000a900473ffffffffffffffffffffffffffffffffffffffff1673ffffffffffffffffffffffffffffffffffffffff166108fc349081150290604051600060405180830381858888f1935050505015156113dc57600080fd5b8273ffffffffffffffffffffffffffffffffffffffff16601660009054906101000a900473ffffffffffffffffffffffffffffffffffffffff1673ffffffffffffffffffffffffffffffffffffffff167fddf252ad1be2c89b69c2b068fc378daa952ba7f163c4a11628f55a4df523b3ef836040518082815260200191505060405180910390a36114b534600860003373ffffffffffffffffffffffffffffffffffffffff1673ffffffffffffffffffffffffffffffffffffffff1681526020019081526020016000205461265190919063ffffffff16565b600860003373ffffffffffffffffffffffffffffffffffffffff1673ffffffffffffffffffffffffffffffffffffffff16815260200190815260200160002081905550505050565b6040805190810160405280600681526020017f41646f736961000000000000000000000000000000000000000000000000000081525081565b600081600260003373ffffffffffffffffffffffffffffffffffffffff1673ffffffffffffffffffffffffffffffffffffffff16815260200190815260200160002060008573ffffffffffffffffffffffffffffffffffffffff1673ffffffffffffffffffffffffffffffffffffffff168152602001908152602001600020819055508273ffffffffffffffffffffffffffffffffffffffff163373ffffffffffffffffffffffffffffffffffffffff167f8c5be1e5ebec7d5bd14f71427d1e84f3dd0314c0f7b2291e5b200ac8c7c3b925846040518082815260200191505060405180910390a36001905092915050565b60145481565b60045481565b600c5481565b601260ff16600a0a631a13b8600281565b6000600360009054906101000a900473ffffffffffffffffffffffffffffffffffffffff1673ffffffffffffffffffffffffffffffffffffffff163373ffffffffffffffffffffffffffffffffffffffff161415156116a957600080fd5b613840600f546015540101421115156116c157600080fd5b8160068190555060019050919050565b600082601860009054906101000a900473ffffffffffffffffffffffffffffffffffffffff1673ffffffffffffffffffffffffffffffffffffffff163373ffffffffffffffffffffffffffffffffffffffff16141580156117805750601960009054906101000a900473ffffffffffffffffffffffffffffffffffffffff1673ffffffffffffffffffffffffffffffffffffffff163373ffffffffffffffffffffffffffffffffffffffff1614155b80156117da5750601660009054906101000a900473ffffffffffffffffffffffffffffffffffffffff1673ffffffffffffffffffffffffffffffffffffffff163373ffffffffffffffffffffffffffffffffffffffff1614155b156117f957600f546015540142101515156117f457600080fd5b611862565b600f546015540142111515611861576001600760008373ffffffffffffffffffffffffffffffffffffffff1673ffffffffffffffffffffffffffffffffffffffff16815260200190815260200160002060006101000a81548160ff0219169083151502179055505b5b84600760008273ffffffffffffffffffffffffffffffffffffffff1673ffffffffffffffffffffffffffffffffffffffff16815260200190815260200160002060009054906101000a900460ff16156118ce57613840600f546015540101421115156118cd57600080fd5b5b6118d9868686612688565b925050509392505050565b60115481565b601281565b600d5481565b60095481565b60135481565b600360009054906101000a900473ffffffffffffffffffffffffffffffffffffffff1673ffffffffffffffffffffffffffffffffffffffff163373ffffffffffffffffffffffffffffffffffffffff1614151561195d57600080fd5b600360149054906101000a900460ff16151561197857600080fd5b6000600360146101000a81548160ff0219169083151502179055507f7805862f689e2f13df9f062ff482ad3ad112aca9e0847911ed832e158c525b3360405160405180910390a1565b600b5481565b600360149054906101000a900460ff1681565b601260ff16600a0a6401636487a00281565b601860009054906101000a900473ffffffffffffffffffffffffffffffffffffffff1681565b601760009054906101000a900473ffffffffffffffffffffffffffffffffffffffff1681565b600080600260003373ffffffffffffffffffffffffffffffffffffffff1673ffffffffffffffffffffffffffffffffffffffff16815260200190815260200160002060008573ffffffffffffffffffffffffffffffffffffffff1673ffffffffffffffffffffffffffffffffffffffff16815260200190815260200160002054905080831115611b49576000600260003373ffffffffffffffffffffffffffffffffffffffff1673ffffffffffffffffffffffffffffffffffffffff16815260200190815260200160002060008673ffffffffffffffffffffffffffffffffffffffff1673ffffffffffffffffffffffffffffffffffffffff16815260200190815260200160002081905550611bdd565b611b5c838261266f90919063ffffffff16565b600260003373ffffffffffffffffffffffffffffffffffffffff1673ffffffffffffffffffffffffffffffffffffffff16815260200190815260200160002060008673ffffffffffffffffffffffffffffffffffffffff1673ffffffffffffffffffffffffffffffffffffffff168152602001908152602001600020819055505b8373ffffffffffffffffffffffffffffffffffffffff163373ffffffffffffffffffffffffffffffffffffffff167f8c5be1e5ebec7d5bd14f71427d1e84f3dd0314c0f7b2291e5b200ac8c7c3b925600260003373ffffffffffffffffffffffffffffffffffffffff1673ffffffffffffffffffffffffffffffffffffffff16815260200190815260200160002060008873ffffffffffffffffffffffffffffffffffffffff1673ffffffffffffffffffffffffffffffffffffffff168152602001908152602001600020546040518082815260200191505060405180910390a3600191505092915050565b61384081565b60086020528060005260406000206000915090505481565b60008060008373ffffffffffffffffffffffffffffffffffffffff1673ffffffffffffffffffffffffffffffffffffffff168152602001908152602001600020549050919050565b60065481565b600360009054906101000a900473ffffffffffffffffffffffffffffffffffffffff1673ffffffffffffffffffffffffffffffffffffffff163373ffffffffffffffffffffffffffffffffffffffff16141515611d9157600080fd5b600360149054906101000a900460ff16151515611dad57600080fd5b6001600360146101000a81548160ff0219169083151502179055507f6985a02210a168e66602d3235cb6db0e70f92b3ba4d376a33c0f3d9434bff62560405160405180910390a1565b6000600360009054906101000a900473ffffffffffffffffffffffffffffffffffffffff1673ffffffffffffffffffffffffffffffffffffffff163373ffffffffffffffffffffffffffffffffffffffff16141515611e5457600080fd5b81600760008573ffffffffffffffffffffffffffffffffffffffff1673ffffffffffffffffffffffffffffffffffffffff16815260200190815260200160002060006101000a81548160ff0219169083151502179055506001905092915050565b601660009054906101000a900473ffffffffffffffffffffffffffffffffffffffff1681565b600360009054906101000a900473ffffffffffffffffffffffffffffffffffffffff1681565b600a5481565b6040805190810160405280600381526020017f41444f000000000000000000000000000000000000000000000000000000000081525081565b600f5481565b600082601860009054906101000a900473ffffffffffffffffffffffffffffffffffffffff1673ffffffffffffffffffffffffffffffffffffffff163373ffffffffffffffffffffffffffffffffffffffff1614158015611ff55750601960009054906101000a900473ffffffffffffffffffffffffffffffffffffffff1673ffffffffffffffffffffffffffffffffffffffff163373ffffffffffffffffffffffffffffffffffffffff1614155b801561204f5750601660009054906101000a900473ffffffffffffffffffffffffffffffffffffffff1673ffffffffffffffffffffffffffffffffffffffff163373ffffffffffffffffffffffffffffffffffffffff1614155b1561206e57600f5460155401421015151561206957600080fd5b6120d7565b600f5460155401421115156120d6576001600760008373ffffffffffffffffffffffffffffffffffffffff1673ffffffffffffffffffffffffffffffffffffffff16815260200190815260200160002060006101000a81548160ff0219169083151502179055505b5b33600760008273ffffffffffffffffffffffffffffffffffffffff1673ffffffffffffffffffffffffffffffffffffffff16815260200190815260200160002060009054906101000a900460ff161561214357613840600f5460155401014211151561214257600080fd5b5b60008573ffffffffffffffffffffffffffffffffffffffff161415151561216957600080fd5b6121738585612a42565b9250505092915050565b6000806121956006548561261690919063ffffffff16565b90506121bd60646121af858461261690919063ffffffff16565b612c6190919063ffffffff16565b91505092915050565b601960009054906101000a900473ffffffffffffffffffffffffffffffffffffffff1681565b60076020528060005260406000206000915054906101000a900460ff1681565b601260ff16600a0a63098968000281565b60006122ae82600260003373ffffffffffffffffffffffffffffffffffffffff1673ffffffffffffffffffffffffffffffffffffffff16815260200190815260200160002060008673ffffffffffffffffffffffffffffffffffffffff1673ffffffffffffffffffffffffffffffffffffffff1681526020019081526020016000205461265190919063ffffffff16565b600260003373ffffffffffffffffffffffffffffffffffffffff1673ffffffffffffffffffffffffffffffffffffffff16815260200190815260200160002060008573ffffffffffffffffffffffffffffffffffffffff1673ffffffffffffffffffffffffffffffffffffffff168152602001908152602001600020819055508273ffffffffffffffffffffffffffffffffffffffff163373ffffffffffffffffffffffffffffffffffffffff167f8c5be1e5ebec7d5bd14f71427d1e84f3dd0314c0f7b2291e5b200ac8c7c3b925600260003373ffffffffffffffffffffffffffffffffffffffff1673ffffffffffffffffffffffffffffffffffffffff16815260200190815260200160002060008773ffffffffffffffffffffffffffffffffffffffff1673ffffffffffffffffffffffffffffffffffffffff168152602001908152602001600020546040518082815260200191505060405180910390a36001905092915050565b60055481565b6000600260008473ffffffffffffffffffffffffffffffffffffffff1673ffffffffffffffffffffffffffffffffffffffff16815260200190815260200160002060008373ffffffffffffffffffffffffffffffffffffffff1673ffffffffffffffffffffffffffffffffffffffff16815260200190815260200160002054905092915050565b60155481565b600360009054906101000a900473ffffffffffffffffffffffffffffffffffffffff1673ffffffffffffffffffffffffffffffffffffffff163373ffffffffffffffffffffffffffffffffffffffff1614151561250857600080fd5b600073ffffffffffffffffffffffffffffffffffffffff168173ffffffffffffffffffffffffffffffffffffffff161415151561254457600080fd5b8073ffffffffffffffffffffffffffffffffffffffff16600360009054906101000a900473ffffffffffffffffffffffffffffffffffffffff1673ffffffffffffffffffffffffffffffffffffffff167f8be0079c531659141344cd1fd0a4f28419497f9722a3daafe3b4186f6b6457e060405160405180910390a380600360006101000a81548173ffffffffffffffffffffffffffffffffffffffff021916908373ffffffffffffffffffffffffffffffffffffffff16021790555050565b600e5481565b60105481565b60125481565b600080600084141561262b576000915061264a565b828402905082848281151561263c57fe5b0414151561264657fe5b8091505b5092915050565b600080828401905083811015151561266557fe5b8091505092915050565b600082821115151561267d57fe5b818303905092915050565b60008073ffffffffffffffffffffffffffffffffffffffff168373ffffffffffffffffffffffffffffffffffffffff16141515156126c557600080fd5b6000808573ffffffffffffffffffffffffffffffffffffffff1673ffffffffffffffffffffffffffffffffffffffff16815260200190815260200160002054821115151561271257600080fd5b600260008573ffffffffffffffffffffffffffffffffffffffff1673ffffffffffffffffffffffffffffffffffffffff16815260200190815260200160002060003373ffffffffffffffffffffffffffffffffffffffff1673ffffffffffffffffffffffffffffffffffffffff16815260200190815260200160002054821115151561279d57600080fd5b6127ee826000808773ffffffffffffffffffffffffffffffffffffffff1673ffffffffffffffffffffffffffffffffffffffff1681526020019081526020016000205461266f90919063ffffffff16565b6000808673ffffffffffffffffffffffffffffffffffffffff1673ffffffffffffffffffffffffffffffffffffffff16815260200190815260200160002081905550612881826000808673ffffffffffffffffffffffffffffffffffffffff1673ffffffffffffffffffffffffffffffffffffffff1681526020019081526020016000205461265190919063ffffffff16565b6000808573ffffffffffffffffffffffffffffffffffffffff1673ffffffffffffffffffffffffffffffffffffffff1681526020019081526020016000208190555061295282600260008773ffffffffffffffffffffffffffffffffffffffff1673ffffffffffffffffffffffffffffffffffffffff16815260200190815260200160002060003373ffffffffffffffffffffffffffffffffffffffff1673ffffffffffffffffffffffffffffffffffffffff1681526020019081526020016000205461266f90919063ffffffff16565b600260008673ffffffffffffffffffffffffffffffffffffffff1673ffffffffffffffffffffffffffffffffffffffff16815260200190815260200160002060003373ffffffffffffffffffffffffffffffffffffffff1673ffffffffffffffffffffffffffffffffffffffff168152602001908152602001600020819055508273ffffffffffffffffffffffffffffffffffffffff168473ffffffffffffffffffffffffffffffffffffffff167fddf252ad1be2c89b69c2b068fc378daa952ba7f163c4a11628f55a4df523b3ef846040518082815260200191505060405180910390a3600190509392505050565b60008073ffffffffffffffffffffffffffffffffffffffff168373ffffffffffffffffffffffffffffffffffffffff1614151515612a7f57600080fd5b6000803373ffffffffffffffffffffffffffffffffffffffff1673ffffffffffffffffffffffffffffffffffffffff168152602001908152602001600020548211151515612acc57600080fd5b612b1d826000803373ffffffffffffffffffffffffffffffffffffffff1673ffffffffffffffffffffffffffffffffffffffff1681526020019081526020016000205461266f90919063ffffffff16565b6000803373ffffffffffffffffffffffffffffffffffffffff1673ffffffffffffffffffffffffffffffffffffffff16815260200190815260200160002081905550612bb0826000808673ffffffffffffffffffffffffffffffffffffffff1673ffffffffffffffffffffffffffffffffffffffff1681526020019081526020016000205461265190919063ffffffff16565b6000808573ffffffffffffffffffffffffffffffffffffffff1673ffffffffffffffffffffffffffffffffffffffff168152602001908152602001600020819055508273ffffffffffffffffffffffffffffffffffffffff163373ffffffffffffffffffffffffffffffffffffffff167fddf252ad1be2c89b69c2b068fc378daa952ba7f163c4a11628f55a4df523b3ef846040518082815260200191505060405180910390a36001905092915050565b6000808284811515612c6f57fe5b04905080915050929150505600a165627a7a723058206d1087f808c46f261ede2e44fd7ba70b3562c94135ee6b80c26ffa8fcf6378570029",
  "source": "pragma solidity ^0.4.19;\n// author - adosiawolf\n\n// hey Kyle here - coments in grey explain the code functionality\n// find me on git or twitter (@adosiawolf) with questions, comments or feedback\n\n\nimport './StandardToken.sol';\nimport './Pausable.sol';\nimport './Ownable.sol';\n\ncontract ADOToken is StandardToken, Ownable, Pausable {\n  using SafeMath for uint256;\n\n  string public constant name = \"Adosia\";\n  string public constant symbol = \"ADO\";\n  uint8 public constant decimals = 18;\n  uint256 public totalSupply           = 8000000000 * (uint256(10) ** decimals);             // total ADO supply\n  uint256 public constant publicSupply = 5962500000 * (uint256(10) ** decimals);             // reserve ADO supply for public token sale\n  uint256 public constant privateRSVP  =  437500000 * (uint256(10) ** decimals);             // reserve ADO supply for private sale activity already conducted (will be locked for privateBuyLockPeriod)\n  uint256 public constant oppSupply    =  160000000 * (uint256(10) ** decimals);             // reserve ADO supply for immediate adosia operations (incentives/bounties)\n  uint256 public vaultSupply  = totalSupply.sub(privateRSVP).sub(publicSupply).sub(oppSupply);   // reserve ADO sent to vault to hold for vesting periods\n\n  // change to \"hours\" and \"minutes\" to \"weeks\" for production\n  uint constant public privateBuyLockPeriod = 4 hours;\n\n  uint public conversionRate = 12500;                                                            // token discount sale base rate: 1 ETH : 1250 ADO  => conversionRate\n  mapping (address => bool) public earlyLocklist;\n  mapping (address => uint256) public purchaseAmount;\n\n  uint256 public publicSoldPresale = 0;   // total ether raised during public presale (in wei)\n  uint256 public publicSoldStage1  = 0;   // total ether raised during public discount sale stage 1 (in wei)\n  uint256 public publicSoldStage2  = 0;   // total ether raised during public discount sale stage 2 (in wei)\n  uint256 public publicSoldStage3  = 0;   // total ether raised during public discount sale stage 3 (in wei)\n  uint256 public publicSoldStage4  = 0;   // total ether raised during public discount sale stage 4 (in wei)\n\n\n  /****************************************************************************************************************************/\n  /***************************************************** ADOSIA SETTINGS ******************************************************/\n  /****************************************************************************************************************************/\n  // UNCOMMENT FOR PRODUCTION - BEGIN\n  /*\n\n  uint256 public scale            = 1 days;\n  uint256 public durationSeconds  = 8 * 7 * 24 * 3600;  // total campaign duration of 8 weeks\n\n  // ether cap on funds raised during each stage\n  uint256 public publicCapPresale = 40000 ether;       // total cap on public funds raised during public super discount presale (in wei)\n  uint256 public publicCapStage1  = 40000 ether;       // total cap on public funds raised during public discount sale stage 1 (in wei)\n  uint256 public publicCapStage2  = 30000 ether;       // total cap on public funds raised during public discount sale stage 2 (in wei)\n  uint256 public publicCapStage3  = 50000 ether;       // total cap on public funds raised during public discount sale stage 3 (in wei)\n  uint256 public publicCapStage4  = 50000 ether;       // total cap on public funds raised during public discount sale stage 4 (in wei)\n  */\n  // UNCOMMENT FOR PRODUCTION - END\n  /****************************************************************************************************************************/\n  /****************************************************************************************************************************/\n  // COMMENT OUT FOR PRODUCTION - BEGIN\n\n  uint256 public scale            = 1 minutes;      // compresses timing for public discount sale test\n  uint256 public durationSeconds  = 3360;           // total campaign duration of 56 minutes (3360 = 56 minutes;  201600 = 56 hours)\n\n  // ether cap on funds raised during each stage\n  uint256 public publicCapPresale = 25 ether;       // total cap on public funds raised during public super discount presale (in wei)\n  uint256 public publicCapStage1  = 25 ether;       // total cap on public funds raised during public discount sale stage 1 (in wei)\n  uint256 public publicCapStage2  = 25 ether;       // total cap on public funds raised during public discount sale stage 2 (in wei)\n  uint256 public publicCapStage3  = 25 ether;       // total cap on public funds raised during public discount sale stage 3 (in wei)\n  uint256 public publicCapStage4  = 25 ether;       // total cap on public funds raised during public discount sale stage 4 (in wei)\n  // COMMENT OUT FOR PRODUCTION - END\n  /****************************************************************************************************************************/\n  /****************************************************************************************************************************/\n\n  uint256 public startTimestamp;                       // timestamp after which public discount sale will start\n  address public poolWallet;                           // address which will receive raised funds and owns the public supply of tokens\n  address public vaultWallet;                          // address which will receive funds to be locked and released monthly over a 2 year period\n  address public oppWallet;                            // address which will receive tokens available for immediate distribution and bounties\n  address public prvWallet;                            // address to send 437.5M tokens for private sale funding\n\n  function ADOToken(address _poolWallet, address _vaultWallet, address _oppWallet, address _prvWallet, uint256 _startTimestamp) public {\n      poolWallet = _poolWallet;       /* ADO pool wallet address */\n      vaultWallet = _vaultWallet;     /* ADO vault wallet address */\n      oppWallet   = _oppWallet;       /* ADO operational bank wallet address */\n      prvWallet   = _prvWallet;       // transfering\n\n      if (_startTimestamp > 0)\n        startTimestamp = _startTimestamp;\n\n      else\n        startTimestamp = now + 5 seconds;\n\n        // send majority of tokens to Adosia public sale wallet\n      balances[poolWallet] = publicSupply;\n      Transfer(0x0, poolWallet, publicSupply);\n\n      // send 18% of tokens to Adosia vault wallet to hold for vesting\n      balances[vaultWallet] = vaultSupply;\n      Transfer(0x0, vaultWallet, vaultSupply);\n\n      // send 2% of tokens to Adosia operations wallet for securing\n      balances[oppWallet] = oppSupply;\n      Transfer(0x0, oppWallet, oppSupply);\n\n      // send remaining reserved tokens to Adosia wallet for private sale distribution\n      balances[prvWallet] = privateRSVP;\n      Transfer(0x0, prvWallet, privateRSVP);\n  }\n\n\n  // default function executed on payment receipt\n  function () external payable {\n    buyADO(msg.sender);\n  }\n\n\n  function buyADO(address buyer) public isDiscountOpen whenNotPaused payable {\n\n      if (now <= (startTimestamp + durationSeconds)) {\n          // require msg.sender pintended purchase summed with past purchased will equal less than 20 ether (only during discount sale)\n          require(purchaseAmount[msg.sender].add(msg.value) <= 20 ether);\n      }\n\n      uint mult = 100;\n\n      // +400% bonus token during 1st week of discount sale (public presale)\n      if (now <= startTimestamp + scale.mul(7)) {\n         publicSoldPresale = publicSoldPresale.add(msg.value);\n         mult = 500;\n      }\n\n      // +125% bonus token during 2nd week of discount sale (public sale stage 1)\n      else if (now > (startTimestamp + scale.mul(7)) && now <= (startTimestamp + scale.mul(14)) ) {\n         publicSoldStage1 = publicSoldStage1.add(msg.value);\n         mult = 225;\n      }\n\n      // +100% bonus token during 3rd week of discount sale (public sale stage 2)\n      else if (now > (startTimestamp + scale.mul(14)) && now <= (startTimestamp + scale.mul(21)) ) {\n         publicSoldStage2 = publicSoldStage2.add(msg.value);\n         mult = 200;\n      }\n\n      // +50% bonus token during 4th week of discount sale (public sale stage 3)\n      else if (now > (startTimestamp + scale.mul(21)) && now <= (startTimestamp + scale.mul(28)) ) {\n         publicSoldStage3 = publicSoldStage3.add(msg.value);\n         mult = 150;\n      }\n\n      else if (now > (startTimestamp + scale.mul(28)) && now <= (startTimestamp + durationSeconds) ) {\n        // 0% bonus token during ongoing sale\n        publicSoldStage4 = publicSoldStage4.add(msg.value);\n      }\n\n\n      // calculate how many tokens are being purchased\n      uint256 myTokens = calculateTokensBought(msg.value, mult);\n\n      // require the number of tokens stored in adosia token public wallet be greater than the tokens being purchased\n      require(balances[poolWallet] >= myTokens);\n\n      balances[poolWallet] = balances[poolWallet].sub(myTokens);\n      balances[buyer] = balances[buyer].add(myTokens);\n\n      // immediately transfer ether receieved back home\n      poolWallet.transfer(msg.value);\n\n      // now transfer out ADO tokens purchased\n      Transfer(poolWallet, buyer, myTokens);\n      purchaseAmount[msg.sender] = purchaseAmount[msg.sender].add(msg.value);\n  }\n\n\n  function calculateTokensBought(uint256 weiAmount, uint mult) public constant returns(uint256) {\n      // token discount sale base rate: 1 ETH : 12500 ADO  => conversionRate\n      uint256 myTokens = weiAmount.mul(conversionRate);\n      return myTokens.mul(mult).div(100);\n  }\n\n\n  function transfer(address _to, uint _value) public isDiscountFinished(_to) isLockTimeEnded(msg.sender) returns (bool) {\n      require(_to != 0x0);\n      return super.transfer(_to, _value);\n  }\n\n\n  function transferFrom(address _from, address _to, uint _value) public isDiscountFinished(_to) isLockTimeEnded(_from) returns (bool) {\n      return super.transferFrom(_from, _to, _value);\n  }\n\n\n  function updateADOTokenPrice(uint _rate) external onlyOwner returns (bool) {\n      // this function allows adosia to update the price for which we sell ADO directly to users down the road\n      // discount period must have ended and privateBuyLockPerioud must have passed before adosia can update direct-sale token price to sell to users\n      require (now > (startTimestamp + durationSeconds + privateBuyLockPeriod) );\n      conversionRate = _rate;\n      return true;\n  }\n\n\n  function editWhitelist(address _address, bool isLocked) external onlyOwner returns (bool) {\n      earlyLocklist[_address] = isLocked;\n      return true;\n  }\n\n\n  modifier isDiscountOpen() {\n      require(now >= startTimestamp);\n\n      // evaluate if discount sale is still occurring before utilizing extensive require\n      if (now <= (startTimestamp + durationSeconds)) {\n        // make sure cap for each ADO discount sale stage is not yet met\n        require(\n          (now <= (startTimestamp + scale.mul(7)) && publicCapPresale >= publicSoldPresale.add(msg.value))                                                // public presale       (1 week duration)\n          || (now > (startTimestamp + scale.mul(7)) && now <= (startTimestamp + scale.mul(14)) && publicCapStage1 >= publicSoldStage1.add(msg.value))     // stage 1 public sale  (1 week duration)\n          || (now > (startTimestamp + scale.mul(14)) && now <= (startTimestamp + scale.mul(21)) && publicCapStage2 >= publicSoldStage2.add(msg.value))    // stage 2 public sale  (1 week duration)\n          || (now > (startTimestamp + scale.mul(21)) && now <= (startTimestamp + scale.mul(28)) && publicCapStage3 >= publicSoldStage3.add(msg.value))    // stage 3 public sale  (1 week duration)\n          || (now > (startTimestamp + scale.mul(28)) && now <= (startTimestamp + durationSeconds) && publicCapStage4 >= publicSoldStage4.add(msg.value))  // stage 4 public sale  (4 weeks duration)\n        );\n      }\n      _;\n  }\n\n\n  modifier isDiscountFinished(address sendto) {\n\n      // allow ability to send funds from opps wallet and and private wallet\n      if (msg.sender != oppWallet && msg.sender != prvWallet && msg.sender != poolWallet) {\n        require(now >= (startTimestamp + durationSeconds));\n      }\n      else if (now <= (startTimestamp + durationSeconds)) {\n        // msg.sender is adosia address - so\n        // automatically lock any tokens sent out from private or operations wallets prior to the token hold period ending\n        earlyLocklist[sendto] = true;\n      }\n      _;\n  }\n\n\n  modifier isLockTimeEnded(address from) {\n\n    if (earlyLocklist[from]) {\n          require(now > startTimestamp + durationSeconds + privateBuyLockPeriod);\n    }\n    _;\n  }\n\n\n}\n",
  "sourcePath": "/Users/adosiadev2/Tokens/adosia-token/contracts/ADOToken.sol",
  "compiler": {
    "name": "solc",
    "version": "0.4.19+commit.c4cbbb05.Emscripten.clang"
  },
  "schemaVersion": "1.0.1",
  "updatedAt": "2018-03-01T01:31:24.717Z"
}