{
  "contractName": "ADOVault",
  "abi": [
    {
      "constant": true,
      "inputs": [],
      "name": "ADO",
      "outputs": [
        {
          "name": "",
          "type": "address"
        }
      ],
      "payable": false,
      "stateMutability": "view",
      "type": "function"
    },
    {
      "constant": true,
      "inputs": [
        {
          "name": "",
          "type": "address"
        }
      ],
      "name": "allocated",
      "outputs": [
        {
          "name": "",
          "type": "uint256"
        }
      ],
      "payable": false,
      "stateMutability": "view",
      "type": "function"
    },
    {
      "constant": true,
      "inputs": [],
      "name": "exponent",
      "outputs": [
        {
          "name": "",
          "type": "uint256"
        }
      ],
      "payable": false,
      "stateMutability": "view",
      "type": "function"
    },
    {
      "constant": true,
      "inputs": [],
      "name": "unlockDate",
      "outputs": [
        {
          "name": "",
          "type": "uint256"
        }
      ],
      "payable": false,
      "stateMutability": "view",
      "type": "function"
    },
    {
      "constant": true,
      "inputs": [],
      "name": "unlockPercent",
      "outputs": [
        {
          "name": "",
          "type": "uint8"
        }
      ],
      "payable": false,
      "stateMutability": "view",
      "type": "function"
    },
    {
      "constant": true,
      "inputs": [],
      "name": "owner",
      "outputs": [
        {
          "name": "",
          "type": "address"
        }
      ],
      "payable": false,
      "stateMutability": "view",
      "type": "function"
    },
    {
      "constant": true,
      "inputs": [
        {
          "name": "",
          "type": "address"
        }
      ],
      "name": "released",
      "outputs": [
        {
          "name": "",
          "type": "uint256"
        }
      ],
      "payable": false,
      "stateMutability": "view",
      "type": "function"
    },
    {
      "constant": true,
      "inputs": [],
      "name": "start",
      "outputs": [
        {
          "name": "",
          "type": "uint256"
        }
      ],
      "payable": false,
      "stateMutability": "view",
      "type": "function"
    },
    {
      "constant": true,
      "inputs": [],
      "name": "end",
      "outputs": [
        {
          "name": "",
          "type": "uint256"
        }
      ],
      "payable": false,
      "stateMutability": "view",
      "type": "function"
    },
    {
      "constant": false,
      "inputs": [
        {
          "name": "newOwner",
          "type": "address"
        }
      ],
      "name": "transferOwnership",
      "outputs": [],
      "payable": false,
      "stateMutability": "nonpayable",
      "type": "function"
    },
    {
      "constant": true,
      "inputs": [
        {
          "name": "",
          "type": "address"
        }
      ],
      "name": "revoked",
      "outputs": [
        {
          "name": "",
          "type": "bool"
        }
      ],
      "payable": false,
      "stateMutability": "view",
      "type": "function"
    },
    {
      "inputs": [
        {
          "name": "_ADO",
          "type": "address"
        },
        {
          "name": "_allocated",
          "type": "address[]"
        },
        {
          "name": "_start",
          "type": "uint256"
        }
      ],
      "payable": false,
      "stateMutability": "nonpayable",
      "type": "constructor"
    },
    {
      "anonymous": false,
      "inputs": [
        {
          "indexed": false,
          "name": "revoked",
          "type": "address"
        }
      ],
      "name": "Revoked",
      "type": "event"
    },
    {
      "anonymous": false,
      "inputs": [
        {
          "indexed": false,
          "name": "releastedTO",
          "type": "address"
        },
        {
          "indexed": false,
          "name": "releasedAmount",
          "type": "uint256"
        }
      ],
      "name": "Released",
      "type": "event"
    },
    {
      "anonymous": false,
      "inputs": [
        {
          "indexed": true,
          "name": "previousOwner",
          "type": "address"
        },
        {
          "indexed": true,
          "name": "newOwner",
          "type": "address"
        }
      ],
      "name": "OwnershipTransferred",
      "type": "event"
    },
    {
      "constant": false,
      "inputs": [],
      "name": "release",
      "outputs": [],
      "payable": false,
      "stateMutability": "nonpayable",
      "type": "function"
    },
    {
      "constant": false,
      "inputs": [
        {
          "name": "addr",
          "type": "address"
        }
      ],
      "name": "revoke",
      "outputs": [],
      "payable": false,
      "stateMutability": "nonpayable",
      "type": "function"
    },
    {
      "constant": true,
      "inputs": [
        {
          "name": "recipient",
          "type": "address"
        }
      ],
      "name": "releasableAmount",
      "outputs": [
        {
          "name": "",
          "type": "uint256"
        }
      ],
      "payable": false,
      "stateMutability": "view",
      "type": "function"
    },
    {
      "constant": true,
      "inputs": [
        {
          "name": "recipient",
          "type": "address"
        }
      ],
      "name": "vestedAmount",
      "outputs": [
        {
          "name": "",
          "type": "uint256"
        }
      ],
      "payable": false,
      "stateMutability": "view",
      "type": "function"
    }
  ],
  "bytecode": "0x606060405234156200001057600080fd5b6040516200141138038062001411833981016040528080519060200190919080518201919060200180519060200190919050506000336000806101000a81548173ffffffffffffffffffffffffffffffffffffffff021916908373ffffffffffffffffffffffffffffffffffffffff16021790555083600960006101000a81548173ffffffffffffffffffffffffffffffffffffffff021916908373ffffffffffffffffffffffffffffffffffffffff16021790555060c060405190810160405280632cb4178063ffffffff1681526020016302faf08063ffffffff1681526020016315752a0063ffffffff168152602001630bebc20063ffffffff1681526020016302625a0063ffffffff1681526020016302625a0063ffffffff1681525060089060066200014292919062000278565b5060008214156200015d576078420160028190555062000165565b816002819055505b600090505b825181101562000256576008818154811015156200018457fe5b906000526020600020900154600560008584815181101515620001a357fe5b9060200190602002015173ffffffffffffffffffffffffffffffffffffffff1673ffffffffffffffffffffffffffffffffffffffff1681526020019081526020016000208190555060006006600085848151811015156200020057fe5b9060200190602002015173ffffffffffffffffffffffffffffffffffffffff1673ffffffffffffffffffffffffffffffffffffffff1681526020019081526020016000208190555080806001019150506200016a565b612a304201600181905550617e906001540160038190555050505050620002fa565b828054828255906000526020600020908101928215620002bf579160200282015b82811115620002be578251829063ffffffff1690559160200191906001019062000299565b5b509050620002ce9190620002d2565b5090565b620002f791905b80821115620002f3576000816000905550600101620002d9565b5090565b90565b611107806200030a6000396000f3006060604052600436106100db576000357c0100000000000000000000000000000000000000000000000000000000900463ffffffff1680631726cbc8146100e05780632a769de01461012d578063384711cc146101825780634225e5bb146101cf57806352f6ee581461021c57806369ac57211461024557806374a8f1031461026e578063756688c0146102a757806386d1a69f146102d65780638da5cb5b146102eb5780639852595c14610340578063be9a65551461038d578063efbe1c1c146103b6578063f2fde38b146103df578063fa01dc0614610418575b600080fd5b34156100eb57600080fd5b610117600480803573ffffffffffffffffffffffffffffffffffffffff16906020019091905050610469565b6040518082815260200191505060405180910390f35b341561013857600080fd5b6101406104cc565b604051808273ffffffffffffffffffffffffffffffffffffffff1673ffffffffffffffffffffffffffffffffffffffff16815260200191505060405180910390f35b341561018d57600080fd5b6101b9600480803573ffffffffffffffffffffffffffffffffffffffff169060200190919050506104f2565b6040518082815260200191505060405180910390f35b34156101da57600080fd5b610206600480803573ffffffffffffffffffffffffffffffffffffffff169060200190919050506108b6565b6040518082815260200191505060405180910390f35b341561022757600080fd5b61022f6108ce565b6040518082815260200191505060405180910390f35b341561025057600080fd5b6102586108da565b6040518082815260200191505060405180910390f35b341561027957600080fd5b6102a5600480803573ffffffffffffffffffffffffffffffffffffffff169060200190919050506108e0565b005b34156102b257600080fd5b6102ba610c1e565b604051808260ff1660ff16815260200191505060405180910390f35b34156102e157600080fd5b6102e9610c31565b005b34156102f657600080fd5b6102fe610e90565b604051808273ffffffffffffffffffffffffffffffffffffffff1673ffffffffffffffffffffffffffffffffffffffff16815260200191505060405180910390f35b341561034b57600080fd5b610377600480803573ffffffffffffffffffffffffffffffffffffffff16906020019091905050610eb5565b6040518082815260200191505060405180910390f35b341561039857600080fd5b6103a0610ecd565b6040518082815260200191505060405180910390f35b34156103c157600080fd5b6103c9610ed3565b6040518082815260200191505060405180910390f35b34156103ea57600080fd5b610416600480803573ffffffffffffffffffffffffffffffffffffffff16906020019091905050610ed9565b005b341561042357600080fd5b61044f600480803573ffffffffffffffffffffffffffffffffffffffff1690602001909190505061102e565b604051808215151515815260200191505060405180910390f35b60006104c5600660008473ffffffffffffffffffffffffffffffffffffffff1673ffffffffffffffffffffffffffffffffffffffff168152602001908152602001600020546104b7846104f2565b61104e90919063ffffffff16565b9050919050565b600960009054906101000a900473ffffffffffffffffffffffffffffffffffffffff1681565b60008060015442101561050857600091506108b0565b600354421015806105625750600760008473ffffffffffffffffffffffffffffffffffffffff1673ffffffffffffffffffffffffffffffffffffffff16815260200190815260200160002060009054906101000a900460ff165b156105b857670de0b6b3a7640000600560008573ffffffffffffffffffffffffffffffffffffffff1673ffffffffffffffffffffffffffffffffffffffff168152602001908152602001600020540291506108b0565b6105cd6002544261104e90919063ffffffff16565b905063033e91008110151561064b576106446103e861063661036b600560008873ffffffffffffffffffffffffffffffffffffffff1673ffffffffffffffffffffffffffffffffffffffff1681526020019081526020016000205461106790919063ffffffff16565b6110a290919063ffffffff16565b91506108b0565b6302c7ea00811015156106c5576106be60646106b0604b600560008873ffffffffffffffffffffffffffffffffffffffff1673ffffffffffffffffffffffffffffffffffffffff1681526020019081526020016000205461106790919063ffffffff16565b6110a290919063ffffffff16565b91506108b0565b6302514300811015156107415761073a6103e861072c610271600560008873ffffffffffffffffffffffffffffffffffffffff1673ffffffffffffffffffffffffffffffffffffffff1681526020019081526020016000205461106790919063ffffffff16565b6110a290919063ffffffff16565b91506108b0565b6301da9c00811015156107bb576107b460646107a66032600560008873ffffffffffffffffffffffffffffffffffffffff1673ffffffffffffffffffffffffffffffffffffffff1681526020019081526020016000205461106790919063ffffffff16565b6110a290919063ffffffff16565b91506108b0565b630163f50081101515610837576108306103e8610822610177600560008873ffffffffffffffffffffffffffffffffffffffff1673ffffffffffffffffffffffffffffffffffffffff1681526020019081526020016000205461106790919063ffffffff16565b6110a290919063ffffffff16565b91506108b0565b600154421015156108af576108a8606461089a6019600560008873ffffffffffffffffffffffffffffffffffffffff1673ffffffffffffffffffffffffffffffffffffffff1681526020019081526020016000205461106790919063ffffffff16565b6110a290919063ffffffff16565b91506108b0565b5b50919050565b60056020528060005260406000206000915090505481565b670de0b6b3a764000081565b60015481565b60008060008060009054906101000a900473ffffffffffffffffffffffffffffffffffffffff1673ffffffffffffffffffffffffffffffffffffffff163373ffffffffffffffffffffffffffffffffffffffff1614151561094057600080fd5b6000600560008673ffffffffffffffffffffffffffffffffffffffff1673ffffffffffffffffffffffffffffffffffffffff1681526020019081526020016000205411151561098e57600080fd5b600760008573ffffffffffffffffffffffffffffffffffffffff1673ffffffffffffffffffffffffffffffffffffffff16815260200190815260200160002060009054906101000a900460ff161515156109e757600080fd5b600660008573ffffffffffffffffffffffffffffffffffffffff1673ffffffffffffffffffffffffffffffffffffffff168152602001908152602001600020549250610a3284610469565b9150610a47828461104e90919063ffffffff16565b90506001600760008673ffffffffffffffffffffffffffffffffffffffff1673ffffffffffffffffffffffffffffffffffffffff16815260200190815260200160002060006101000a81548160ff021916908315150217905550600960009054906101000a900473ffffffffffffffffffffffffffffffffffffffff1673ffffffffffffffffffffffffffffffffffffffff1663a9059cbb6000809054906101000a900473ffffffffffffffffffffffffffffffffffffffff16836000604051602001526040518363ffffffff167c0100000000000000000000000000000000000000000000000000000000028152600401808373ffffffffffffffffffffffffffffffffffffffff1673ffffffffffffffffffffffffffffffffffffffff16815260200182815260200192505050602060405180830381600087803b1515610b8f57600080fd5b6102c65a03f11515610ba057600080fd5b505050604051805190501515610bb557600080fd5b7fb6fa8b8bd5eab60f292eca876e3ef90722275b785309d84b1de113ce0b8c4e7484604051808273ffffffffffffffffffffffffffffffffffffffff1673ffffffffffffffffffffffffffffffffffffffff16815260200191505060405180910390a150505050565b600460009054906101000a900460ff1681565b600080600560003373ffffffffffffffffffffffffffffffffffffffff1673ffffffffffffffffffffffffffffffffffffffff16815260200190815260200160002054111515610c8057600080fd5b610c8933610469565b9050600081111515610c9a57600080fd5b610cec81600660003373ffffffffffffffffffffffffffffffffffffffff1673ffffffffffffffffffffffffffffffffffffffff168152602001908152602001600020546110bd90919063ffffffff16565b600660003373ffffffffffffffffffffffffffffffffffffffff1673ffffffffffffffffffffffffffffffffffffffff16815260200190815260200160002081905550600960009054906101000a900473ffffffffffffffffffffffffffffffffffffffff1673ffffffffffffffffffffffffffffffffffffffff1663a9059cbb33836000604051602001526040518363ffffffff167c0100000000000000000000000000000000000000000000000000000000028152600401808373ffffffffffffffffffffffffffffffffffffffff1673ffffffffffffffffffffffffffffffffffffffff16815260200182815260200192505050602060405180830381600087803b1515610dfc57600080fd5b6102c65a03f11515610e0d57600080fd5b505050604051805190501515610e2257600080fd5b7fb21fb52d5749b80f3182f8c6992236b5e5576681880914484d7f4c9b062e619e3382604051808373ffffffffffffffffffffffffffffffffffffffff1673ffffffffffffffffffffffffffffffffffffffff1681526020018281526020019250505060405180910390a150565b6000809054906101000a900473ffffffffffffffffffffffffffffffffffffffff1681565b60066020528060005260406000206000915090505481565b60025481565b60035481565b6000809054906101000a900473ffffffffffffffffffffffffffffffffffffffff1673ffffffffffffffffffffffffffffffffffffffff163373ffffffffffffffffffffffffffffffffffffffff16141515610f3457600080fd5b600073ffffffffffffffffffffffffffffffffffffffff168173ffffffffffffffffffffffffffffffffffffffff1614151515610f7057600080fd5b8073ffffffffffffffffffffffffffffffffffffffff166000809054906101000a900473ffffffffffffffffffffffffffffffffffffffff1673ffffffffffffffffffffffffffffffffffffffff167f8be0079c531659141344cd1fd0a4f28419497f9722a3daafe3b4186f6b6457e060405160405180910390a3806000806101000a81548173ffffffffffffffffffffffffffffffffffffffff021916908373ffffffffffffffffffffffffffffffffffffffff16021790555050565b60076020528060005260406000206000915054906101000a900460ff1681565b600082821115151561105c57fe5b818303905092915050565b600080600084141561107c576000915061109b565b828402905082848281151561108d57fe5b0414151561109757fe5b8091505b5092915050565b60008082848115156110b057fe5b0490508091505092915050565b60008082840190508381101515156110d157fe5b80915050929150505600a165627a7a723058203edf8170935885628c443c4568f496f2f4717713c4244d0cfaecf86a4ce074b70029",
  "source": "pragma solidity ^0.4.19;\n// author - adosiawolf\n\n\n//work in progress - addresses not yet added\n\n\nimport './StandardToken.sol';\nimport './Ownable.sol';\nimport './SafeMath.sol';\n\n\n// requires 1,440,000,000 ADO deposited into ADO safe address\ncontract ADOVault is Ownable {\n\n  using SafeMath for uint256;\n\n  event Revoked(address revoked);\n  event Released(address releastedTO, uint256 releasedAmount);\n\n  uint256 public unlockDate;\n  uint256 public start;\n  uint256 public end;\n  uint8 public unlockPercent;\n\n  mapping (address => uint256) public allocated;\n  mapping (address => uint256) public released;\n  mapping (address => bool) public revoked;\n\n  uint256[] allocations;\n\n  address public ADO;\n  uint256 public constant exponent = 10**18;\n\n  function ADOVault(address _ADO, address[] _allocated, uint256 _start) public {\n\n    ADO = _ADO;\n    //transferOwnership(ADO);\n\n    allocations = [750000000, 50000000, 360000000, 200000000, 40000000, 40000000];\n\n    if (_start == 0)\n      start = now + 120 seconds;\n\n    else\n      start = _start;\n\n    // loop through _allocated array and set allocted mapping\n    for (uint i = 0; i < _allocated.length; i++) {\n      allocated[_allocated[i]] = allocations[i];\n       released[_allocated[i]] = 0;\n    }\n\n\n\n    // set to unlock first batch at 180 days from sale launch\n    unlockDate = now + 6 * 30 minutes;          // ~6 months\n\n    // when all vault tokens should be available for release\n    end = unlockDate + 18 * 30 minutes;         // ~24 months\n  }\n\n\n  // transfer vested tokens to pre-specified beneficiary addres\n\n  function release() public {\n\n      // don't even fuck with calls coming from non hard-coded addresses\n      require(allocated[msg.sender] > 0);\n      //assert(allocated[msg.sender]);\n\n      uint256 unreleased = releasableAmount(msg.sender);\n      require(unreleased > 0);\n      released[msg.sender] = released[msg.sender].add(unreleased);\n\n      if (!StandardToken(ADO).transfer(msg.sender, unreleased)) {\n        revert();\n      }\n\n      Released(msg.sender, unreleased);\n  }\n\n  // allow owner to revoke token vesting\n  function revoke(address addr) public onlyOwner {\n\n      require(allocated[addr] > 0);\n      require(!revoked[addr]);\n\n      uint256 balance = released[addr];\n\n      uint256 unreleased = releasableAmount(addr);\n      uint256 refund = balance.sub(unreleased);\n\n      revoked[addr] = true;\n      if (!StandardToken(ADO).transfer(owner, refund)) {\n        revert();\n      }\n\n      Revoked(addr);\n  }\n\n  // calculates the amount that has already vested but hasn't been released\n  function releasableAmount(address recipient) public constant returns (uint256) {\n      return vestedAmount(recipient).sub(released[recipient]);\n  }\n\n\n  // calculates the amount of token that have already vested\n  function vestedAmount(address recipient) public constant returns (uint256) {\n\n      if (now < unlockDate) {\n        // tokens revoked before cliff, so no vested tokens can be returned\n        return 0;\n      }\n      else if (now >= end || revoked[recipient]) {\n\n        // all tokens have vested so return entire amount\n        return allocated[recipient] * exponent;\n\n      }\n\n      else {\n\n        // token vesting period has not ended\n        // now we need calculate the total vested ADO tokens (we don't care here whether or not they have been released)\n\n        uint256 duration = now.sub(start);\n\n        if      (duration >= 630 days)  { return allocated[recipient].mul(875).div(1000); }\n        else if (duration >= 540 days)  { return allocated[recipient].mul(75).div(100);  }\n        else if (duration >= 450 days)  { return allocated[recipient].mul(625).div(1000); }\n        else if (duration >= 360 days)  { return allocated[recipient].mul(50).div(100);  }\n        else if (duration >= 270 days)  { return allocated[recipient].mul(375).div(1000); }\n        else if (now >= unlockDate)     { return allocated[recipient].mul(25).div(100);  }\n\n      }\n\n    }\n\n}\n",
  "sourcePath": "/Users/adosiadev2/Tokens/adosia-token/contracts/ADOVault.sol",
  "compiler": {
    "name": "solc",
    "version": "0.4.19+commit.c4cbbb05.Emscripten.clang"
  },
  "schemaVersion": "1.0.1",
  "updatedAt": "2018-03-01T01:31:24.710Z"
}